:03000000020CCD22
:0C0CCD00787FE4F6D8FD75812C020D1430
:100C0C0057656C636F6D65202121210053656C6500
:100C1C0063742054696D650057415445522020205F
:100C2C004348454D4943414C0050726F6772616DAA
:100C3C0020537461727465640056414C56452031E2
:100C4C00204F50454E0056414C56452032204F50B7
:100C5C00454E0056414C56452033204F50454E00D2
:100C6C0056414C56452034204F50454E0056414C71
:100C7C0056452035204F50454E0056414C56452088
:100C8C0036204F50454E0056414C56452037204F8C
:100C9C0050454E0056414C56452038204F50454E3D
:100CAC000050726F6772616D2046696E697368657A
:100CBC006400524553455420746F20537461727410
:010CCC000027
:100EB200020C000002150000020F0000010EC00427
:100EC2001B000000000417000000000408000000DE
:090ED200000213000102110000EE
:100E8800E4F580F59075A0FFF5B0C2B6C2B7F5805D
:100E98007F38120F1E120EDC7F0C120F1E120EDC92
:0A0EA800120F2E7F057E00020EE0FF
:040F5500EF2430FF56
:010F59002275
:040EDC007F057E0010
:100EE000E4FDFCC3ED9FEC9E5015E4FBFA0BBB0048
:0F0EF000010AEB64644A70F50DBD00010C80E44B
:010EFF0022D0
:040DDF007F0A7E0009
:040DE3008E218F22AC
:100DE700E4F525F526C3E5269522E5259521502529
:100DF700E4F523F524120F420524E52470020523A8
:100E0700C39414E5236480948040EA0526E52670A0
:050E1700D4052580D088
:010E1C0022B3
:060D9F00D2B7AE19AF1A35
:040DA5008E218F22EA
:100DA900E4F525F526C3E5269522E5259521502567
:100DB900E4F523F524120F420524E52470020523E6
:100DC900C394B0E5236480948440EA0526E526703F
:050DD900D4052580D0C7
:010DDE0022F2
:040E1D008E278F2865
:100E2100E4F52BF52CC3E52C9528E52B95275029C6
:100E3100E4F529F52A7F017E00120DA5052AE52A90
:100E410070020529C3943CE5296480948040E6053D
:090E51002CE52C70D0052B80CC9F
:010E5A002275
:100F4200758901758AFD758C4BD28C308DFDC28CF2
:030F5200C28D222B
:050F1900120F2E7F8085
:100F1E00C2B2D2B38F90120EDCC2B37F0A020EE0C1
:050F0000AF20120F55A7
:100F0500D2B2D2B38F907F647E00120EE0C2B37F5F
:040F15000A020EE0DE
:060D59007BFF7D0C7C0015
:0A0D5F008B218A2289238C248D2524
:100D6900E4F526C3E5269525E495245022D2B2D28E
:100D7900B3AB21AA22A923852682758300120E5BB3
:100D8900F5907F647E00120EE0C2B3052680D47F01
:060D9900647E00020EE082
:100F2E007F01120F1E120EDC7F02120F1E7F057E36
:040F3E0000020EE0BF
:100B3800C2A7D2A6D2A5D2A420A30830A3FD7E00C6
:100B48007F012220A20830A2FD7E007F022220A180
:100B58000830A1FD7E007F032220A00830A0FD7E82
:100B6800007F0A22D2A7C2A6D2A5D2A420A3083009
:100B7800A3FD7E007F042220A20830A2FD7E007F14
:100B8800052220A10830A1FD7E007F062220A008B2
:100B980030A0FD7E007F0B22D2A7D2A6C2A5D2A488
:100BA80020A30830A3FD7E007F072220A20830A2E0
:100BB800FD7E007F082220A10830A1FD7E007F096C
:100BC8002220A00830A0FD7E007F0C22D2A7D2A64A
:100BD800D2A5C2A420A30830A3FD7E007F0E222048
:100BE800A20730A2FDE4FEFF2220A10830A1FD7E6D
:100BF800007F0F2220A00830A0FD7E007F0D227EFE
:040C0800007F6E22D9
:10080000120E887F80120F1E7BFF7A0C790C7D0BF5
:100810007C00120D5F7FC0120F1E7BFF7A0C7918CF
:100820007D0B7C00120D5F7F037E00120DE3120F23
:10083000197BFF7A0C79247D107C00120D5F7FC03C
:08084000120F1E7F0F120F1EA4
:1008480075206EE520646E60030209B9120B388FBB
:1008580020E520646E60ECE520B40D1E750C007573
:100868000D01120F197BFF7A0C79357D0F7C001270
:100878000D5F7FC0120F1E0209B9E514640145130C
:1008880060030209170516E516700205156401458F
:10089800157015E52075F064A4FFAEF0E48F1E8E88
:1008A8001DF51CF51B020942E51664024515702367
:1008B800E52075F00AA4FFAEF0E4FCFDE51E2FF577
:1008C8001EE51D3EF51DED351CF51CEC351BF51B15
:1008D80002096FE51664034515600302084BFCFD29
:1008E800FEE51E2520F51EEE351DF51DED351CF522
:1008F8001CEC351BF51B120F00E4F513F514F5116C
:10090800751201F515F516E50E240BFF0209B3E57E
:100918001264014511600302084B0510E5107002CE
:10092800050F6401450F7017E52075F064A4FFAE4C
:10093800F0E48F1A8E19F518F517AF20FE802CE514
:10094800106402450F702DE52075F00AA4FFAEF083
:10095800E4FCFDE51A2FF51AE5193EF519ED3518F1
:10096800F518EC3517F517AF207E00120F55120F4A
:100978000502084BE5106403450F600302084BFCB1
:10098800FDFEE51A2520F51AEE3519F519ED35188D
:10099800F518EC3517F517120F00751300751401CB
:1009A800E4F511F512F50FF5107FC0120F1E0208BD
:1009B8004BE50D450C7003020848E4F50CF50D7580
:1009C8000B01F50AF509F508D2807FC0120F1E7ACF
:1009D8000C7945120D59120DDFD2B67F017E001237
:1009E8000DA5120D9FC2B7AE0AAF0B120DA5D2818D
:1009F8007FC0120F1E7A0C7952120D59120DDFC2E8
:100A0800807F017E00120DA5120D9FC2B7AE0AAFFE
:100A18000B120DA5D2827FC0120F1E7BFF7A0C79B4
:100A28005F120D5B120DDFC2817F017E00120DA5E2
:100A3800120D9FC2B7AE0AAF0B120DA5D2837FC0AD
:100A4800120F1E7BFF7A0C796C120D5B120DDFC240
:100A5800827F017E00120DA5120D9FC2B7AE0AAFAC
:100A68000B120DA5D2847FC0120F1E7BFF7A0C7962
:100A780079120D5B120DDFC2837F017E00120DA576
:100A8800120D9FC2B7AE0AAF0B120DA5D2857FC05B
:100A9800120F1E7BFF7A0C7986120D5B120DDFC2D6
:100AA800847F017E00120DA5120D9FC2B7AE0AAF5A
:100AB8000B120DA5D2867FC0120F1E7BFF7A0C7910
:100AC80093120D5B120DDFC2857F017E00120DA50A
:100AD800120D9FC2B7AE0AAF0B120DA5D2877FC009
:100AE800120F1E7BFF7A0C79A0120D5B120DDFC26C
:100AF800867F017E00120DA5120D9FC2B7AE0AAF08
:100B08000B120DA5C2B6120DDFC287120F197BFF9B
:100B18007A0C79AD7D107C00120D5F7FC0120F1E1C
:0D0B28007BFF7A0C79BE7D0E7C00120D5F04
:030B35000208486B
:100CD900020800E493A3F8E493A34003F68001F229
:100CE90008DFF48029E493A3F85407240CC8C3331C
:100CF900C4540F4420C8834004F456800146F6DFEB
:100D0900E4800B0102040810204080900EB2E47EBA
:100D1900019360BCA3FF543F30E509541FFEE493DF
:100D2900A360010ECF54C025E060A840B8E493A3A6
:100D3900FAE493A3F8E493A3C8C582C8CAC583CAD1
:100D4900F0A3C8C582C8CAC583CADFE9DEE780BE89
:010EDB000016
:100E5B00BB010CE58229F582E5833AF583E022504C
:100E6B0006E92582F8E622BBFE06E92582F8E22296
:0D0E7B00E58229F582E5833AF583E49322B0
:00000001FF
