:03000000020E6588
:0C0E6500787FE4F6D8FD758164020EACC5
:100C650057656C636F6D65202121210053656C65A7
:100C750063742053657175656E6365003173742007
:100C850056616C7665203A2000573A2020202020B6
:100C9500202020443A20202000326E642056616CCA
:100CA5007665203A20003372642056616C766520A3
:100CB5003A20003474682056616C7665203A20002D
:100CC5003574682056616C7665203A200036746864
:100CD5002056616C7665203A20003774682056618D
:100CE5006C7665203A20003874682056616C76650C
:100CF500203A200050726F6772616D2053746172E3
:100D05007465640056414C56452031204F50454E80
:100D15000056414C56452032204F50454E00564115
:100D25004C56452033204F50454E0056414C5645B4
:100D35002034204F50454E0056414C564520352015
:100D45004F50454E0056414C56452036204F504594
:100D55004E0056414C56452037204F50454E0056C3
:100D6500414C56452038204F50454E0050726F6714
:100D750072616D2046696E697368656400524553FA
:0C0D8500455420746F2053746172740098
:100FB5000210000002360001024D0001025100003E
:100FC5000257000002550000024A0000015D800141
:100FD5004CC0045900000000040800000000040C87
:080FE5000000000002530001AE
:10103B00E4F5907580FFF5A0F5B0D2B6D2B775A0E8
:0E104B00FF7F381210727F0C12107202109983
:0410A300EF2430FF07
:0110A7002226
:10101B00E4FDFCC3ED9FEC9E5015E4FBFA0BBB000B
:0F102B00010AEB64644A70F50DBD00010C80E40E
:01103A002293
:040F77007F0A7E006F
:040F7B008E5F8F6096
:100F7F00E4F563F564C3E5649560E563955F50251B
:100F8F00E4F561F5621210860562E5627002056193
:100F9F00C39414E5616480948040EA0564E564704D
:050FAF00D4056380D0B1
:010FB400221A
:060F3700F8E6FE08E6FFEB
:040F3D008E5F8F60D4
:100F4100E4F563F564C3E5649560E563955F502559
:100F5100E4F561F5621210860562E56270020561D1
:100F6100C394B0E5616480948440EA0564E56470EB
:050F7100D4056380D0EF
:010F76002258
:10108600758901758AFD758C4BD28C308DFDC28CAD
:03109600C28D22E6
:10107200C2B2D2B38F907F0A7E0012101BC2B37F1E
:041082001402101B29
:05105900AF5E1210A3C0
:10105E00D2B2D2B38F907F647E0012101BC2B37FC8
:04106E000A02101B47
:060EF1007BFF7D0C7C007C
:0A0EF7008B5F8A6089618C628D6355
:100F0100E4F564C3E5649563E495625022D2B2D2FC
:100F1100B3AB5FAA60A961856482758300120FEE8D
:100F2100F5907F647E0012101BC2B3056480D47FEC
:060F31000A7E0002101B05
:0A1099007F011210727F0202107234
:100D9100C287D286D285D2842083083083FD7E002B
:100DA1007F01222082083082FD7E007F0222208185
:100DB100083081FD7E007F03222080083080FD7E87
:100DC100007F0A22D287C286D285D284208308304E
:100DD10083FD7E007F04222082083082FD7E007F19
:100DE10005222081083081FD7E007F0622208008B7
:100DF1003080FD7E007F0B22D287D286C285D284CD
:100E01002083083083FD7E007F0722208208308204
:100E1100FD7E007F08222081083081FD7E007F0950
:100E2100222080083080FD7E007F0C22D287D2866E
:100E3100D285C2842083083083FD7E007F0E22206C
:100E410082073082FDE4FEFF222081083081FD7E91
:100E5100007F0F222080083080FD7E007F0D227EE2
:040E6100007F6E227E
:1008000012103B7F801210727BFF7A0C79657D0B92
:100810007C00120EF77FC01210727BFF7A0C797188
:100820007D0F7C00120EF77F037E00120F7B7F0F7F
:0308300012107231
:10083300755E6EE55E646E6003020AC7E537453692
:1008430070030208E6E4F536F5377F80121072E58F
:100853005360030208E6E55414B408004003020899
:10086300E690087275F003A4C58325F0C58373026F
:10087300088A0208AD0208B50208BD0208C50208CD
:10088300CD0208D50208DD7A0C7981120EF17FC002
:100893001210727BFF7A0C798E7D0F7C00120EF79B
:1008A300E55D240CFF12107280397BFF7A0C799E70
:1008B300802E7BFF7A0C79AB80267BFF7A0C79B88C
:1008C300801E7BFF7A0C79C580167BFF7A0C79D268
:1008D300800E7BFF7A0C79DF80067BFF7A0C79EC44
:1008E300120EF3120D918F5EE55E646E70030208C3
:1008F30036E55EB40A1F7536007537010554E554B5
:1009030070020553D39408E55364809480400675C0
:100913005300755401E55EB40D097510007511019E
:10092300020AC7E54E6401454D7044E55ED3940069
:100933005003020836E55E94094003020836E55D7C
:10094300240CFF121072AF5E7E001210A312105E11
:10095300AF5EE55425E02412F8760008A607E4F517
:100963004DF54EF551755201E54C2402020AC0E5DE
:1009730052640145516003020A140556E55670029C
:100983000555640145557015E55E75F064A4FFAE29
:10099300F0E48F5C8E5BF55AF559020A3FE5566425
:1009A3000245557023E55E75F00AA4FFAEF0E4FC42
:1009B300FDE55C2FF55CE55B3EF55BED355AF55ADD
:1009C300EC3559F559020A6CE55664034555600345
:1009D300020836FCFDFEE55C255EF55CEE355BF555
:1009E3005BED355AF55AEC3559F559121059E4F5C2
:1009F30051F552F557755801F555F556AF5CE55469
:100A030025E02424F8A65B08A607E54C240C020A7B
:100A1300C0E558640145576003020836054BE54BB2
:100A23007002054A6401454A7017E55E75F064A4D7
:100A3300FFAEF0E48F0B8E0AF509F508AF5EFE807A
:100A43002CE54B6402454A702DE55E75F00AA4FF60
:100A5300AEF0E4FCFDE50B2FF50BE50A3EF50AEDE0
:100A63003509F509EC3508F508AF5E7E001210A3D1
:100A730012105E020836E54B6403454A6003020820
:100A830036FCFDFEE50B255EF50BEE350AF50AEDAA
:100A93003509F509EC3508F508121059754D00753F
:100AA3004E01E4F557F558F54AF54BAF0BE55425E0
:100AB300E02438F8A60A08A607E55D240CFF121007
:100AC30072020836E51145107003020833121099BB
:100AD3007F801210727BFF7A0C79F97D0F7C0012F4
:100AE3000EF77FC0121072E4F510F511F54F755033
:100AF30001D3E5509554E5536480F8E54F6480983D
:100B03004003020C33E55025E02412F8E6FE08E624
:100B1300FFEE6003020C28EF14B408004003020C3C
:100B230028900B3275F003A4C58325F0C5837302A7
:100B33000B4A020B61020B7A020B93020BAB020B03
:100B4300C3020BDB020BF3C2A07FC01210727A0D3B
:100B53007909120EF1120F7775A0FE020C09C2A1DA
:100B63007FC01210727BFF7A0D7916120EF3120FEB
:100B73007775A0FD020C09C2A27FC01210727BFF21
:100B83007A0D7923120EF3120F7775A0FB020C096D
:100B9300C2A37FC01210727BFF7A0D7930120EF35D
:100BA300120F7775A0F7805EC2A47FC01210727B0C
:100BB300FF7A0D793D120EF3120F7775A0EF804681
:100BC300C2A57FC01210727BFF7A0D794A120EF311
:100BD300120F7775A0DF802EC2A67FC01210727B22
:100BE300FF7A0D7957120EF3120F7775A0BF801697
:100BF300C2A77FC01210727BFF7A0D7964120EF3C5
:100C0300120F7775A07FC2B67F017E00120F3DC21F
:100C1300B7E55025E02438120F37D2B7E55025E069
:100C23002424120F370550E5507002054F020AF4D1
:100C3300D2B6120F7775A0FF1210997F801210722F
:100C43007BFF7A0D79717D107C00120EF77FC01245
:0F0C530010727BFF7A0D79827D0E7C00120EF7F6
:030C620002083352
:100E7100020800E493A3F8E493A34003F68001F28F
:100E810008DFF48029E493A3F85407240CC8C33382
:100E9100C4540F4420C8834004F456800146F6DF51
:100EA100E4800B0102040810204080900FB5E47E1D
:100EB100019360BCA3FF543F30E509541FFEE49346
:100EC100A360010ECF54C025E060A840B8E493A30D
:100ED100FAE493A3F8E493A3C8C582C8CAC583CA38
:100EE100F0A3C8C582C8CAC583CADFE9DEE780BEF0
:010FED000003
:100FEE00BB010CE58229F582E5833AF583E02250B8
:100FFE0006E92582F8E622BBFE06E92582F8E22202
:0D100E00E58229F582E5833AF583E493221B
:00000001FF
