:030000000209FBF7
:0C09FB00787FE4F6D8FD75811C020A42EA
:090D0600758901E4F58CF58A22DF
:100C4400AF13AE12120C5AD2B1AF13AE12120C5A29
:060C5400C2B1AF15AE14A1
:100C5A00E4F58CF58AFDFCD3ED9FEC9E5010D28C06
:0E0C6A00308DFDC28CC28D0DBD00010C80E9E5
:010C78002259
:10096D007580FF7590FFE4F5A075B0FF120D0612AE
:10097D000800D2807F0A7E00120C5AD2B0120C44AD
:10098D00D2817F0A7E00120C5AC280120C44D28290
:10099D007F0A7E00120C5AC281120C44D2837F0A48
:1009AD007E00120C5AC282120C44D2847F0A7E0041
:1009BD00120C5AC283120C44D2857F0A7E00120C8F
:1009CD005AC284120C44D2867F0A7E00120C5AC27F
:1009DD0085120C44D2877F0A7E00120C5AC28612F1
:0E09ED000C44C2B0AF13AE12120C5AC28722D5
:100CDA0050524F4752414D205354415254454400BB
:100C9D000208000002100000020A00000116C00246
:070CAD000E0001020C000023
:10080000120C0ED2A7D2A6D2A5D2A4C2A3C2A2C253
:10081000A1C2A020A405120A87801620A505120AED
:10082000CC800E20A605120B11800620A707120B04
:10083000568E088F09E509450860C8E509640F452B
:1008400008700E7F80120CFA7FDA7D0F7C00020B9D
:10085000D4E50F450E70030208DE0511E5117002A4
:100860000510640145107019AE08AF09FC7D6412D3
:100870000BC28E148F15AF09120CEAE5160402099B
:1008800033E511640245107020AE08AF09FC7D0A03
:10089000120BC2EF2515F515EE3514F514AF09123C
:1008A0000CEAE5162402020933E5116403451060E1
:1008B00003020803E5092515F515E5083514F514B7
:1008C000AF09120CEAE516240BFF120CFAE4F50E40
:1008D000F50FF50C750D01F510F511020803E50D86
:1008E000450C7003020803050BE50B7002050A6452
:1008F00001450A7019AE08AF09FC7D64120BC28E67
:10090000128F13AF09120CEAE516240C8025E50BB3
:100910006402450A7024AE08AF09FC7D0A120BC2BE
:10092000E5152FF513E5143EF512AF09120CEAE5B3
:1009300016240DFF120CFA020803E50B6403450AA6
:100940006003020803E5152509F513E5143508F5DC
:1009500012AF09120CEAAF16120CFA750E00750FE1
:0D09600001E4F50CF50DF50AF50B02080396
:100A8700D2A3D2A2D2A1D2A0C2A020A40830A4FD92
:100A97007E007F0122D2A0C2A120A40830A4FD7E3F
:100AA700007F0422D2A1C2A220A40830A4FD7E00A8
:100AB7007F0722D2A2C2A320A40530A4FD8002D2C0
:050AC700A3E4FEFF2284
:100ACC00D2A3D2A2D2A1D2A0C2A020A50830A5FD4B
:100ADC007E007F0222D2A0C2A120A50830A5FD7EF7
:100AEC00007F0522D2A1C2A220A50830A5FD7E0060
:100AFC007F0822D2A2C2A320A50530A5FD8002D278
:050B0C00A3E4FEFF223E
:100B1100D2A3D2A2D2A1D2A0C2A020A60830A6FD03
:100B21007E007F0322D2A0C2A120A60830A6FD7EAE
:100B3100007F0622D2A1C2A220A60830A6FD7E0017
:100B41007F0922D2A2C2A320A60530A6FD8002D22F
:050B5100A3E4FEFF22F9
:100B5600D2A3D2A2D2A1D2A0C2A020A70530A7FDBF
:100B66008029D2A0C2A120A70530A7FD801DD2A151
:100B7600C2A220A70530A7FD8011D2A2C2A320A73A
:0F0B86000830A7FD7E007F0F22D2A3E4FEFF22DE
:100CC90057617465722020204368656D6963616CA2
:010CD900001A
:100C0E007F38120CFA120C797F0E120CFA120C7934
:100C1E00120CB5120C797F80120CFA120C797FC966
:100C2E007D107C00120BD4120C797FC0120CFA7F4F
:060C3E00057E00020C7DA2
:0C0CFA00C2B2D2B38F90120C79C2B322A8
:040C79007F057E0075
:100C7D00E4FDFCC3ED9FEC9E5015E4FBFA0BBB00AD
:0F0C8D00010AEB64644A70F50DBD00010C80E4B0
:010C9C002235
:0A0BD4008B178A1889198C1A8D1BE3
:100BDE00E4F51CC3E51C951BE4951A5022D2B2D243
:100BEE00B3AB17AA18A919851C82758300120B9531
:0F0BFE00F5907F647E00120C7DC2B3051C80D47D
:010C0D0022C4
:100CEA00D2B2D2B38F907F647E00120C7DC2B3223F
:100CB5007F01120CFA120C797F02120CFA7F057E65
:040CC50000020C7DA0
:100A070002096DE493A3F8E493A34003F68001F28F
:100A170008DFF48029E493A3F85407240CC8C333F0
:100A2700C4540F4420C8834004F456800146F6DFBF
:100A3700E4800B0102040810204080900C9DE47EA6
:100A4700019360BCA3FF543F30E509541FFEE493B4
:100A5700A360010ECF54C025E060A840B8E493A37B
:100A6700FAE493A3F8E493A3C8C582C8CAC583CAA6
:100A7700F0A3C8C582C8CAC583CADFE9DEE780BE5E
:010CB400003F
:100B9500BB010CE58229F582E5833AF583E0225015
:100BA50006E92582F8E622BBFE06E92582F8E2225F
:0D0BB500E58229F582E5833AF583E4932279
:100BC200EF8DF0A4A8F0CF8CF0A428CE8DF0A42E47
:020BD200FE2201
:00000001FF
