:03000000020E6885
:0C0E6800787FE4F6D8FD758164020EAFBF
:100C680057656C636F6D65202121210053656C65A4
:100C780063742053657175656E6365003173742004
:100C880056616C7665203A2000573A2020202020B3
:100C9800202020443A20202000326E642056616CC7
:100CA8007665203A20003372642056616C766520A0
:100CB8003A20003474682056616C7665203A20002A
:100CC8003574682056616C7665203A200036746861
:100CD8002056616C7665203A20003774682056618A
:100CE8006C7665203A20003874682056616C766509
:100CF800203A200050726F6772616D2053746172E0
:100D08007465640056414C56452031204F50454E7D
:100D18000056414C56452032204F50454E00564112
:100D28004C56452033204F50454E0056414C5645B1
:100D38002034204F50454E0056414C564520352012
:100D48004F50454E0056414C56452036204F504591
:100D58004E0056414C56452037204F50454E0056C0
:100D6800414C56452038204F50454E0050726F6711
:100D780072616D2046696E697368656400524553F7
:0C0D8800455420746F2053746172740095
:100FB8000210000002360001024D0001025100003B
:100FC8000257000002550000024A0000015D80013E
:100FD8004CC0045900000000040800000000040C84
:080FE8000000000002530001AB
:10103E00E4F580F59075A0FFF5B0C2B6C2B7F580A5
:0D104E007F381210747F0C12107402109B7A
:0410A500EF2430FF05
:0110A9002224
:10101E00E4FDFCC3ED9FEC9E5015E4FBFA0BBB0008
:0F102E00010AEB64644A70F50DBD00010C80E40B
:01103D002290
:040F7A007F0A7E006C
:040F7E008E5F8F6093
:100F8200E4F563F564C3E5649560E563955F502518
:100F9200E4F561F5621210880562E562700205618E
:100FA200C39414E5616480948040EA0564E564704A
:050FB200D4056380D0AE
:010FB7002217
:060F3A00F8E6FE08E6FFE8
:040F40008E5F8F60D1
:100F4400E4F563F564C3E5649560E563955F502556
:100F5400E4F561F5621210880562E56270020561CC
:100F6400C394B0E5616480948440EA0564E56470E8
:050F7400D4056380D0EC
:010F79002255
:10108800758901758AFD758C4BD28C308DFDC28CAB
:03109800C28D22E4
:10107400C2B2D2B38F907F0A7E0012101EC2B37F19
:041084001402101E24
:05105B00AF5E1210A5BC
:10106000D2B2D2B38F907F647E0012101EC2B37FC3
:041070000A02101E42
:060EF4007BFF7D0C7C0079
:0A0EFA008B5F8A6089618C628D6352
:100F0400E4F564C3E5649563E495625022D2B2D2F9
:100F1400B3AB5FAA60A961856482758300120FF187
:100F2400F5907F647E0012101EC2B3056480D47FE6
:060F34000A7E0002101EFF
:0A109B007F011210747F020210742E
:100D9400C2A7D2A6D2A5D2A420A30830A3FD7E0068
:100DA4007F012220A20830A2FD7E007F022220A122
:100DB4000830A1FD7E007F032220A00830A0FD7E24
:100DC400007F0A22D2A7C2A6D2A5D2A420A30830AB
:100DD400A3FD7E007F042220A20830A2FD7E007FB6
:100DE400052220A10830A1FD7E007F062220A00854
:100DF40030A0FD7E007F0B22D2A7D2A6C2A5D2A42A
:100E040020A30830A3FD7E007F072220A20830A281
:100E1400FD7E007F082220A10830A1FD7E007F090D
:100E24002220A00830A0FD7E007F0C22D2A7D2A6EB
:100E3400D2A5C2A420A30830A3FD7E007F0E2220E9
:100E4400A20730A2FDE4FEFF2220A10830A1FD7E0E
:100E5400007F0F2220A00830A0FD7E007F0D227E9F
:040E6400007F6E227B
:1008000012103E7F801210747BFF7A0C79687D0B8A
:100810007C00120EFA7FC01210747BFF7A0C797480
:100820007D0F7C00120EFA7F037E00120F7E7F0F79
:030830001210742F
:10083300755E6EE55E646E6003020AE1E537453678
:1008430070030208E6E4F536F5377F80121074E58D
:100853005360030208E6E55414B408004003020899
:10086300E690087275F003A4C58325F0C58373026F
:10087300088A0208AD0208B50208BD0208C50208CD
:10088300CD0208D50208DD7A0C7984120EF47FC0FC
:100893001210747BFF7A0C79917D0F7C00120EFA93
:1008A300E55D240CFF12107480397BFF7A0C79A16B
:1008B300802E7BFF7A0C79AE80267BFF7A0C79BB86
:1008C300801E7BFF7A0C79C880167BFF7A0C79D562
:1008D300800E7BFF7A0C79E280067BFF7A0C79EF3E
:1008E300120EF6120D948F5EE55E646E70030208BD
:1008F30036E55EB40A1F7536007537010554E554B5
:1009030070020553D39408E55364809480400675C0
:100913005300755401E55EB40D2375100075110184
:1009230012109B7F801210747BFF7A0C79FC7D0F71
:100933007C00120EFA7FC0121074020AE1E54E64C5
:1009430001454D7044E55ED394005003020836E53B
:100953005E94094003020836E55D240CFF1210740F
:10096300AF5E7E001210A5121060AF5EE55425E065
:100973002412F8760008A607E4F54DF54EF55175F7
:100983005201E54C2402020ADAE552640145516042
:1009930003020A2E0556E5567002055564014555B6
:1009A3007015E55E75F064A4FFAEF0E48F5C8E5BBA
:1009B300F55AF559020A59E556640245557023E57F
:1009C3005E75F00AA4FFAEF0E4FCFDE55C2FF55C78
:1009D300E55B3EF55BED355AF55AEC3559F55902B1
:1009E3000A86E556640345556003020836FCFDFE9E
:1009F300E55C255EF55CEE355BF55BED355AF55A46
:100A0300EC3559F55912105BE4F551F552F557756C
:100A13005801F555F556AF5CE55425E02424F8A6B6
:100A23005B08A607E54C240C020ADAE55864014585
:100A3300576003020836054BE54B7002054A640113
:100A4300454A7017E55E75F064A4FFAEF0E48F0BC2
:100A53008E0AF509F508AF5EFE802CE54B6402456E
:100A63004A702DE55E75F00AA4FFAEF0E4FCFDE5E7
:100A73000B2FF50BE50A3EF50AED3509F509EC35C3
:100A830008F508AF5E7E001210A51210600208364A
:100A9300E54B6403454A6003020836FCFDFEE50BA3
:100AA300255EF50BEE350AF50AED3509F509EC354A
:100AB30008F50812105B754D00754E01E4F557F506
:100AC30058F54AF54BAF0BE55425E02438F8A60A50
:100AD30008A607E55D240CFF121074020836E51121
:100AE3004510700302083312109BE4F510F511F55D
:100AF3004F755001D3E5509554E5536480F8E54FA5
:100B03006480984003020C36E55025E02412F8E691
:100B1300FE08E6FFEE6003020C2BEF14B40800405E
:100B230003020C2B900B3575F003A4C58325F0C588
:100B33008373020B4D020B64020B7D020B96020BB7
:100B4300AE020BC6020BDE020BF6D2807FC0121080
:100B5300747A0D790C120EF4120F7A758001020C5F
:100B63000CD2817FC01210747BFF7A0D7919120E9B
:100B7300F6120F7A758002020C0CD2827FC012101B
:100B8300747BFF7A0D7926120EF6120F7A758004A4
:100B9300020C0CD2837FC01210747BFF7A0D793361
:100BA300120EF6120F7A758008805ED2847FC0120F
:100BB30010747BFF7A0D7940120EF6120F7A75804E
:100BC300108046D2857FC01210747BFF7A0D794D59
:100BD300120EF6120F7A758020802ED2867FC012F5
:100BE30010747BFF7A0D795A120EF6120F7A758004
:100BF300408016D2877FC01210747BFF7A0D79670D
:100C0300120EF6120F7A758080D2B67F017E001223
:100C13000F40D2B7E55025E02438120F3AC2B7E5AA
:100C23005025E02424120F3A0550E5507002054F79
:100C3300020AF7C2B6120F7AE4F58012109B7F8086
:100C43001210747BFF7A0D79747D107C00120EFAFA
:100C53007FC01210747BFF7A0D79857D0E7C0012A4
:020C63000EFA87
:030C65000208334F
:100E7400020800E493A3F8E493A34003F68001F28C
:100E840008DFF48029E493A3F85407240CC8C3337F
:100E9400C4540F4420C8834004F456800146F6DF4E
:100EA400E4800B0102040810204080900FB8E47E17
:100EB400019360BCA3FF543F30E509541FFEE49343
:100EC400A360010ECF54C025E060A840B8E493A30A
:100ED400FAE493A3F8E493A3C8C582C8CAC583CA35
:100EE400F0A3C8C582C8CAC583CADFE9DEE780BEED
:010FF0000000
:100FF100BB010CE58229F582E5833AF583E02250B5
:1010010006E92582F8E622BBFE06E92582F8E222FE
:0D101100E58229F582E5833AF583E4932218
:00000001FF
